:200000000C94040E0C94350E0C94350E0C94350E0C94350E0C94350E0C94350E0C94350EF9
:200020000C94350E0C94350E0C94350E0C94350E0C94350E0C94350E0C94350E0C94350EA8
:200040000C94350E0C94E6470C94350E0C94350E0C94350E0C94350E0C94F63F0C94045398
:200060000C94350E0C948C3E0C94350E0C94350E0C94350E0C94350E0C94350E0C94350EE1
:200080000C94350E0C94350E0C94350E0C94350E0C94350E0C94350E0C94350E0C94350E48
:2000A0000C94350E0C94350E0C94350E0C94350E0C94350E0C94350E0C94350E0C94350E28
:2000C0000C94350E0C94350E0C94350E0C94350E0C94350E0C94350E0C94350E0C94350E08
:2000E0000C94350E3E4D414D304D344D3A4D784D454D494D4F4D534D574D5D4D614D654DA8
:20010000784D6B4D6F4D734D734E784E7D4E874E914E0A4F9B4EA34EAB4EB54EBF4EC94E8D
:20012000D84EE24E0A4FEC4EF64E004F084AD73B3BCE016E84BCBFFDC12F3D6C74319ABDD6
:2001400056833DDA3D00C77F11BED9E4BB4C3E916BAAAABE000000803F05A84CCDB2D44EF4
:20016000B93836A9020C50B9918688083CA6AAAA2ABE000000803F004E414E494E495459AA
:20018000494E46CDCCCC3D0AD7233C17B7D13877CC2B329595E6241FB14F0A00002041006B
:2001A00000C84200401C4620BCBE4CCA1B0E5AAEC59D74434F4D4D554E49434154494F4E06
:2001C0000044525952554E004552524F525300494E464F004543484F0047322F473320626F
:2001E000616420706172616D65746572730A002569730025696D2025697300256968202584
:20020000696D2025697300256964202569682025696D202569730025697920256964202545
:2002200069682025696D20256973005072696E742074696D653A2000D401CF01C801C1014B
:20024000B3016F66660044454255473A004B494C4C45442E20004D3131332053006F6B00DC
:2002600020573A0020573A00544845524D414C5F50524F54454354494F4E004155544F521E
:2002800045504F52545F53445F53544154555300454D455247454E43595F504152534552D0
:2002A00000434153455F4C494748545F4252494748544E45535300544F47474C455F4C493D
:2002C0004748545300534F4654574152455F504F574552004255494C445F50455243454E05
:2002E00054004C4556454C494E475F44415441005A5F50524F4245004155544F4C45564545
:200300004C005052494E545F4A4F420050524F4752455353004155544F5245504F52545FE1
:2003200054454D5000564F4C554D455452494300454550524F4D0053455249414C5F584FEF
:200340004E5F584F4646004649524D574152455F4E414D453A4D61726C696E20312E312E65
:200360003920284769746875622920534F555243455F434F44455F55524C3A687474707346
:200380003A2F2F6769746875622E636F6D2F4D61726C696E4669726D776172652F4D6172B7
:2003A0006C696E2050524F544F434F4C5F56455253494F4E3A312E30204D414348494E4505
:2003C0005F545950453A3344205072696E7465722045585452554445525F434F554E543A12
:2003E0003120555549443A63656465326132662D343161322D343734382D396231322D639B
:2004000035356336326633363766660A002F2F2000205400205200416363656C65726174E3
:20042000696F6E3A205000000000C00000A0C000000000546F6F206661722066726F6D202D
:200440007265666572656E636520706F696E740A00FFFFFF205A00205900580020204D6163
:20046000783A2000205A00205900580020204D696E3A20004F6E20004F666600536F66740D
:2004800020656E6473746F70733A200020466C6F773A2000000136372603FFFFFF3B3C3D18
:2004A000380EFFFFFF3F2E303E12FFFFFFFF28FF0C080907FFFF1A1C18FFFF2A08440A07F4
:2004C0004324221E2C20643A0020693A0020703A00496E76616C6964206578747275646516
:2004E000720A0043290A0061626C656420286D696E2074656D702000436F6C64206578749D
:20050000727564657320617265200020643A0020693A0020703A004E6F2063617365206CF0
:20052000696768740A00454550524F4D2064697361626C65640A00416374697665204578A2
:200540007472756465723A2000496E76616C69642065787472756465720A006F6B00205AF3
:200560003A0020593A0020583A00656E6473746F7073206869743A200024F4D43050C38EF0
:2005800020C2A24017828B7011127A910D816CD90AA861E108C7586607615143061E4B5DB9
:2005A00005C145A7041A411104093D9803713931034036DB0265339102D4305402802E1DB3
:2005C00002632CEE01752AC501B028A001102781018F2564012B244B01E0223401AC211F2D
:2005E000018D200D01801FFC00841EED00971DDF00B81CD200E61BC600201BBC00641AB2EE
:2006000000B219A8000A19A0006A189900D117910040178B00B516840031167E00B31579D9
:20062000003A157300C7146F0058146A00EE1366008813630025135E00C7125B006C1257D4
:200640000015125400C111510070114F0021114B00D61049008D10470046104400021042AE
:2006600000C00F4000800F3E00420F3C00060F3B00CB0E3800930E37005C0E3500270E34D0
:2006800000F30D3200C10D3100900D3000600D2E00320D2D00050D2C00D90C2B00AE0C2924
:2006A00000850C29005C0C2700350C27000E0C2600E80B2400C40B2400A00B23007D0B23C6
:2006C000005A0B2100390B2100180B2000F80A1F00D90A1E00BB0A1E009D0A1D00800A1D7C
:2006E00000630A1C00470A1B002C0A1B00110A1A00F7091A00DD091900C4091900AB0919B3
:2007000000920917007B091800630917004C09160036091600200916000A091500F50815CF
:2007200000E0081400CC081400B8081400A4081400900813007D0812006B08130058081207
:20074000004608120034081100230811001208110001081100F0071000E0071000D0071086
:2007600000C0071000B0070F00A107100091070E0083070F0074070F0065070E0057070E75
:200780000049070E003B070D002E070E0020070D0013070D0006070D00F9060C00ED060DE9
:2007A00000E0060C00D4060C00C8060C00BC060C00B0060C00A4060B0099060C008D060BF9
:2007C0000082060B0077060B006C060B0061060A0057060B004C060A0042060A0038060AB2
:2007E000002E060A0024060A001A060A001006090007060A00FD050900F4050900EB050921
:2008000000E2050900D9050900D0050900C7050900BE050900B5050800AD050800A5050953
:20082000009C050800940508008C050800840508007C050800740508006C05070065050850
:20084000005D050700560508004E050700470507004005080038050700310507002A05071B
:2008600000230507001C050600160507000F0507000805060002050700FB040600F50407BF
:2008800000EE040600E8040600E2040700DB040600D5040600CF040600C9040600C3040644
:2008A00000BD040600B7040600B1040500AC040600A6040600A00405009B040600950405A4
:2008C00000900406008A04050085040500800406007A04050075040500700405006B0405E5
:2008E0000066040500610405005C04050057040500520405004D040500480405004304050C
:20090000003E0404003A04050035040500300404002C04050027040400230405001E040422
:20092000001A04040016040500110404000D040400090405000404040000040400FC03041F
:2009400000F8030400F4030400F0030400EC030400E8030400E4030400E0030400DC03040F
:2009600000D8030400D4030400D0030400CC030400C8030300C503030024F404D9201BC486
:200980000C5C0E9804C4095F0265077101F405F900FB04B30048048700C1036900580355E5
:2009A0000003034500BE023A008402310053022A002902250004022000E4011C00C8011963
:2009C00000AF0117009801140084011300710110006101100051010E0043010D0036010B24
:2009E000002B010B0020010B00150109000C01090003010800FB000800F3000800EB000763
:200A000000E4000600DE000600D8000600D2000600CC000500C7000500C2000500BD00042D
:200A200000B9000400B5000400B1000400AD000400A9000400A5000300A20003009F00043D
:200A4000009B000300980003009500020093000300900003008D0002008B000300880002F6
:200A6000008600020084000300810002007F0002007D0002007B0002007900020077000174
:200A800000760002007400020072000100710002006F0002006D0001006C0002006A0001CA
:200AA00000690002006700010066000100650001006400020062000100610001006000010A
:200AC000005F0002005D0001005C0001005B0001005A000100590001005800010057000138
:200AE000005600010055000100540001005300000053000100520001005100010050000157
:200B0000004F0001004E0000004E0001004D0001004C0001004B0000004B0001004A00016B
:200B200000490001004800000048000100470001004600000046000100450000004500017A
:200B4000004400010043000000430001004200000042000100410000004100010040000180
:200B6000003F0000003F0001003E0000003E0001003D0000003D0001003C0000003C000086
:200B8000003C0001003B0000003B0001003A0000003A000100390000003900010038000081
:200BA00000380000003800010037000000370001003600000036000000360001003500007D
:200BC000003500000035000100340000003400000034000100330000003300000033000173
:200BE00000320000003200000032000100310000003100000031000100300000003000006A
:200C000000300001002F0000002F0000002F0000002F0001002E0000002E0000002E00015B
:200C2000002D0000002D0000002D0000002D0001002C0000002C0000002C0000002C00014E
:200C4000002B0000002B0000002B0000002B0001002A0000002A0000002A0000002A00013E
:200C600000290000002900000029000000290000002900010028000000280000002800002E
:200C8000002800000028000100270000002700000027000000270000002700010026000019
:200CA000002600000026000000260000002600010025000000250000002500000025000007
:200CC0000025000000250001002400000024000000240000002400000024000100230000F1
:200CE0000023000000230000002300000023000000230000002300010022000000220000DD
:200D00000022000000220000002200000022000100210000002100000021000000210000C6
:200D20000021000000210000002100010020000000200000002000000020000000200000AF
:200D4000002000000020000000200001001F0000001F0000001F0000001F0000001F000097
:200D6000001F0000001F0001001E0000001E0000001E0000001E00000039300000332500FB
:200D80000087190000B00F0000DB080000BD040000740200003F010000526573656E643AFF
:200DA000200020746F6F206C6F6E6720657874727573696F6E2070726576656E7465640AC9
:200DC0000020636F6C6420657874727573696F6E2070726576656E7465640A006275737986
:200DE0003A2070617573656420666F7220696E7075740A00627573793A20706175736564B7
:200E000020666F7220757365720A00627573793A2070726F63657373696E670A004B494C3E
:200E20004C45442E20004B494C4C2063617573656420627920746F6F206D75636820696E9D
:200E40006163746976652074696D65202D2063757272656E7420636F6D6D616E643A20007E
:200E60005072696E7465722068616C7465642E206B696C6C28292063616C6C6564210A0001
:200E80002020506C616E6E657242756666657242797465733A20002046726565204D656DA6
:200EA0006F72793A2000436F6D70696C65643A204D617220313020323032310A00207C20AB
:200EC000417574686F723A20286E6F6E652C2064656661756C7420636F6E666967290A0073
:200EE000323031382D30382D303100204C61737420557064617465643A2000312E312E3918
:200F00000A004D61726C696E0020536F6674776172652052657365740A00205761746368B5
:200F2000646F672052657365740A002042726F776E206F75742052657365740A00204578A0
:200F40007465726E616C2052657365740A00506F77657255700A0073746172740A00576112
:200F6000726E696E673A20486F6D696E672042756D702044697669736F72203C20310A002C
:200F80000202040000A0400000A040000000400000974300809D430000C843486172646322
:200FA0006F6465642044656661756C742053657474696E6773204C6F616465640A00D007F5
:200FC0000000D0070000640000001027000000009643000096430000484200002042F43DD0
:200FE000A042F43DA04296E3C7430080DE4320286D6D290020440020490020204D3330349C
:2010000020500020440020490020204D3330312050005049442073657474696E67733A0A50
:2010200000205A0020590020204D323036205800486F6D65206F66667365743A0A00204547
:2010400000205A0020590020580020540020530020204D32303520510020453C6D61785F63
:20106000655F6A65726B3E0020583C6D61785F785F6A65726B3E20593C6D61785F795F6A0C
:2010800065726B3E205A3C6D61785F7A5F6A65726B3E00416476616E6365643A20513C6D48
:2010A000696E5F7365676D656E745F74696D655F75733E20533C6D696E5F666565647261BB
:2010C00074653E20543C6D696E5F74726176656C5F66656564726174653E00205400205255
:2010E0000020204D323034205000416363656C65726174696F6E2028756E6974732F733244
:20110000293A20503C7072696E745F616363656C3E20523C726574726163745F6163636570
:201120006C3E20543C74726176656C5F616363656C3E0A00204500205A0020590020204D43
:201140003230312058004D6178696D756D20416363656C65726174696F6E2028756E6974B4
:20116000732F7332293A0A00204500205A0020590020204D3230332058004D6178696D7558
:201180006D206665656472617465732028756E6974732F73293A0A00204500205A0020592D
:2011A0000020204D393220580053746570732070657220756E69743A0A0020204D32303006
:2011C0002044300A0020204D3230302044002044697361626C65640A0046696C616D656EF0
:2011E000742073657474696E67733A002020473231202020203B005452494747455245446E
:20120000006F70656E003A20007A5F6D696E00795F6D696E00785F6D696E005265706F7266
:2012200074696E6720656E6473746F70207374617475730A0000000001000000010000808F
:2012400000555555000000400033333300AAAA2A004992240000002000C7711C009999197A
:2012600000D1451700555515003BB113002449120011111100000010000F0F0F00E3380E6B
:201280000043790D00CCCC0C00C3300C00E8A20B0064210B00AAAA0A00703D0A009DD8092A
:2012A00000427B090092240900DCD30800888808001042080000000800F0C10700878707AB
:2012C0000075500700711C07003EEB0600A1BC06006990060066660600703E060061180618
:2012E0000017F4050074D105005BB00500B2900500627205005555050078390500B81E0524
:2013000000050505004EEC040087D40400A1BD040090A7040049920400C17D0400EE690408
:2013200000C7560400444404005C3204000821040041100400000004003FF00300F8E003DB
:201340000026D20300C3C30300CCB503003AA803000A9B0300388E0300C08103009F7503D4
:2013600000D0690300505E03001D53030034480300913D03003333030016290300381F03B8
:201380000097150300300C0300030303000BFA020049F10200BAE802005CE002002DD8022A
:2013A000002DD0020059C80200B0C0020031B90200DAB10200AAAA0200A0A30200BC9C022B
:2013C00000FA9502005C8F0200DF88020082820200457C02002776020027700200436A0276
:2013E000007C640200D05E02003F590200C85302002066697273740A005A0059005800487F
:201400006F6D6520000000A0420000A0420000A0410000000020746F6F206C6F6E672065FF
:201420007874727573696F6E2070726576656E7465640A0020636F6C64206578747275739C
:20144000696F6E2070726576656E7465640A006563686F3A00656E7175657565696E672020
:2014600022004B494C4C45442E20005072696E7465722073746F7070656420647565207452
:201480006F206572726F72732E2046697820746865206572726F7220616E64207573652020
:2014A0004D39393920746F20726573746172742E202854656D70657261747572652069730C
:2014C0002072657365742E205365742069742061667465722072657374617274696E672994
:2014E0000A004E6F20436865636B73756D2077697468206C696E65206E756D6265722C2039
:201500004C617374204C696E653A2000636865636B73756D206D69736D617463682C204CD4
:20152000617374204C696E653A20004C696E65204E756D626572206973206E6F74204C6116
:201540007374204C696E65204E756D6265722B312C204C617374204C696E653A20004D31B7
:2015600031300020496E76616C69642065787472756465722000000000C00000A0C0000050
:2015800000000000964300009B430000C843486F6D696E67206661696C6564002C20002C2A
:2015A000200050726F7465637465642050696E0A00205A3A0020593A0020436F756E742060
:2015C000583A0020453A00205A3A0020593A00583A003A004361703A0007FFFFFFFFFF0057
:2015E00001010101016265640A002C2073797374656D2073746F70706564212048656174DE
:2016000065725F49443A20004265642068656174696E67206661696C656400486561746932
:201620006E67206661696C65640045312048656174696E67206661696C65640048656174F3
:20164000696E67206661696C65640070012C0190012701B0012201C0011D01F001180110A3
:2016600002130130020E016002090190020401C002FF000003FA004003F5008003F000D0D7
:2016800003EB002004E6007004E100E004DC004005D700C005D2004006CD00D006C8008059
:2016A00007C3003008BE00F008B900C009B400B00AAF00B00BAA00D00CA500000EA00050EF
:2016C0000F9B00C01096005012910000148C00C0158700B0178200B0197D00D01B78000019
:2016E0001E730040206E0090226900F024640040275F0090295A00E02B5500102E50002011
:20170000304B0010324600E033410090353C001037370070383200A0392D00B03A2800A061
:201720003B2300603C1E00103D1900903D1400103E0F00703E0A00C03E0500003F000040B3
:201740003FFBFF803FF6FFC03FF1FF453120544845524D414C2052554E415741590042453C
:201760004420544845524D414C2052554E4157415900546865726D616C2052756E61776156
:2017800079004531204572723A204D415854454D50004572723A204D415854454D5020429A
:2017A0004544004D415854454D5020747269676765726564004531204572723A204D494EAA
:2017C00054454D50004572723A204D494E54454D5020424544004D494E54454D502074722B
:2017E0006967676572656400202F002042403A0020403A00FFFDFCFAF8F6F4F2F0EEECEAD3
:20180000E9E7E5E3E1E0DEDCDAD9D7D5D4D2D0CFCDCBCAC8C7C5C3C2C0BFBDBCBAB9B7B6FE
:20182000B4B3B2B0AFADACAAA9A8A6A5A4A2A1A09E9D9C9A99989795949392908F8E8D8BBE
:201840008A8988878684838281807F7E7D7B7A797877767574737271706F6E6D6C6B6A6966
:201860006867666564636261605F5E5D5C5B5A5958585756555453525150504F4E4D4C4B43
:201880004A4A4948474646454443424241403F3E3E3D3C3B3B3A3938383736353534333282
:2018A000323130302F2E2E2D2C2B2B2A292928272726252524232322212120201F1E1E1D43
:2018C0001C1C1B1B1A19191818171616151514131312121111100F0F0E0E0D0D0C0C0B0AA0
:2018E0000A0909080807070606050504040303020201000000002100240027002A002D00C2
:201900003000330001010000040107010A0100002200250028002B002E003100340002011A
:201920000000050108010B01000020002300260029002C002F003200000100000301060161
:20194000090105050505070508080808020202020A0A0808040404040101010101010101F9
:201960000303030303030303040707070C0C0C0C0C0C0C0C0202020206060606060606069E
:201980000B0B0B0B0B0B0B0B01021020200808102040102040800201020108040201010214
:2019A000040810204080804020100804020180040201804020100804020108040201010294
:2019C000040810204080010204081020408000000A0B02090C0D0E080703040100000000AE
:2019E0000000000000000000000000000000000000000000000000000000121110000000B4
:201A00000000000000000000000000000000000000000000556E6B6E6F776E20636F6D6D0A
:201A2000616E643A2022004B64200023646566696E652044454641554C545F004B69200042
:201A400023646566696E652044454641554C545F004B70200023646566696E65204445461C
:201A600041554C545F00504944204175746F74756E652066696E697368656421205075749B
:201A800020746865206C617374204B702C204B6920616E64204B6420636F6E7374616E748A
:201AA000732066726F6D2062656C6F7720696E746F20436F6E66696775726174696F6E2E26
:201AC000680A00504944204175746F74756E65206661696C6564212074696D656F75740A6B
:201AE00000453120544845524D414C2052554E415741590042454420544845524D414C20E4
:201B000052554E4157415900546865726D616C2052756E6177617900453120486561746949
:201B20006E67206661696C6564004265642068656174696E67206661696C656400486561AD
:201B400074696E67206661696C656400504944204175746F74756E65206661696C65642156
:201B60002054656D706572617475726520746F6F20686967680A00204B643A2000204B697E
:201B80003A2000204B703A20000A20436C617373696320504944200A002054753A20002040
:201BA0004B753A2000206D61783A2000206D696E3A200020643A200020626961733A200096
:201BC000504944204175746F74756E65206661696C656421204261642065787472756465C5
:201BE00072206E756D6265720A00504944204175746F74756E652073746172740A0045725F
:201C0000726F723A0000B16F11241FBECFEFD1E2DEBFCDBF00E00CBF12E0A0E0B2E0E8E3F1
:201C2000F6EF00E00BBF02C007900D92AE35B107D9F72DE0AEE5B2E001C01D92A232B20783
:201C4000E1F71EE0C4E0DEE000E006C021970109802FFE010E94DF7AC330D10780E0080701
:201C6000A9F70E9494590C941A7B0C9400002F923F924F925F926F927F928F929F92AF9257
:201C8000BF92CF92DF92EF92FF920F931F93CF93DF93CDB7DEB766970FB6F894DEBF0FBE16
:201CA000CDBFF8948FEF9FEF9093890080938800BAE0DB2E212C312C78948091EB0490913F
:201CC000EC04A091ED04B091EE04892B8A2B8B2B09F0D7C18091010D8823D1F01092010DD4
:201CE0008091FF0C9091000D892B91F01092AB041092000D1092FF0C9091F60B8091F50B85
:201D0000981731F08091F50B8F5F8F708093F50B8091FF0C9091000D892B09F4B2C10091E3
:201D2000E7041091E8042091E9043091EA048091E3049091E404A091E504B091E6044091C7
:201D4000D90450E060E070E0801B910BA20BB30B481759076A077B0710F4DB01CA01482F70
:201D6000800F911FA21FB31F8093E7049093E804A093E904B093EA048091840090918500F8
:201D80004E968090C0049090C104A090C204B090C3040091B0041091B1042091B2043091E6
:201DA000B304080D191D2A1D3B1D0093C0041093C1042093C2043093C30437FD1CC0889A8E
:201DC00000917C0210917D0220917E0230917F0280901502082C000C9908AA08BB08080DCF
:201DE000191D2A1D3B1D00937C0210937D0220937E0230937F028090C4049090C504A09073
:201E0000C604B090C7040091B4041091B5042091B6043091B704080D191D2A1D3B1D0093E6
:201E2000C4041093C5042093C6043093C70437FD1CC08E9A009180021091810220918202BF
:201E40003091830280901602082C000C9908AA08BB08080D191D2A1D3B1D0093800210931C
:201E6000810220938202309383028090C8049090C904A090CA04B090CB040091B80410919C
:201E8000B9042091BA043091BB04080D191D2A1D3B1D0093C8041093C9042093CA04309399
:201EA000CB0437FD22C020910B012095287020930901419A00918402109185022091860223
:201EC0003091870280901702082C000C9908AA08BB08080D191D2A1D3B1D00938402109393
:201EE000850220938602309387028090CC049090CD04A090CE04B090CF040091BC041091FC
:201F0000BD042091BE043091BF04080D191D2A1D3B1D0093CC041093CD042093CE04309300
:201F2000CF0437FD1CC0149A009188021091890220918A0230918B0280901802082C000CD4
:201F40009908AA08BB08080D191D2A1D3B1D009388021093890220938A0230938B022091F6
:201F600084003091850028173907C8F30091C0041091C1042091C2043091C30437FD15C09A
:201F80008090AC049090AD04A090AE04B090AF04081919092A093B090093C0041093C10462
:201FA0002093C2043093C30488980091C4041091C5042091C6043091C70437FD15C080901B
:201FC000AC049090AD04A090AE04B090AF04081919092A093B090093C4041093C504209377
:201FE000C6043093C7048E980091C8041091C9042091CA043091CB0437FD1AC08090AC04BB
:202000009090AD04A090AE04B090AF04081919092A093B090093C8041093C9042093CA0410
:202020003093CB0420910B0128702093090141980091CC041091CD042091CE043091CF0439
:2020400037FD15C08090AC049090AD04A090AE04B090AF04081919092A093B090093CC04F4
:202060001093CD042093CE043093CF041498415041F0209184003091850028173907C8F3AE
:202080007FCE8091EB049091EC04A091ED04B091EE04892B8A2B8B2B09F029C6E091FF0C0A
:2020A000F091000D309709F4B0C78091E7049091E804A091E904B091EA044091E304509168
:2020C000E4046091E5047091E60484179507A607B707D0F01092AB041092000D1092FF0C44
:2020E0009091F60B8091F50B981709F48EC78091F50B8F5F8F708093F50BA0ED8A2EA7E0CF
:202100009A2EA12CB12CF9C34091DF045091E0046091E1047091E204481759076A077B07A9
:2021200008F4A2C14090DB045090DC046090DD047090DE0486A997A9A0ADB1AD4816590647
:202140006A067B0608F073C1411451046104710449F48091A7049091A804A091A904B091F9
:20216000AA0469C1B0E0AC2D842D352D262DF981EA817B816C815D814E819F815091EE0C42
:20218000589F712D66274091EF0C489F700D611D1090F00C189E600D539F700D611D439FE1
:2021A000600D529F600DF72FE62FF79F512D44279927F69F500D411D9B1FE79F500D411D8F
:2021C0009B1FE69F400D911DF42FE92FF79FA12D44279927F69FA00D411D9B1FE79FA00D6E
:2021E000411D9B1FE69F400D911DF42FE92F55278091A7043091A8042091A90400902B0C42
:202200000B2A09F483C04091270C4F9F51198B0B3B0B2B0B9091280C9F9F501981093B0B0F
:202220002B0BA091290CAF9F801931092B0B4E9F501981093B0B2B0B9E9F801931092B0B09
:20224000AE9F30192109F79FA12D44279927F69FA00D411D9B1FE79FA00D411D9B1FE69F05
:20226000400D911DF42FE92F4091230C4F9F510D8B1F3B1F2B1F9091240C9F9F500D811D04
:202280003B1F2B1FA091250CAF9F800D311D2B1F4E9F500D811D3B1F2B1F9E9F800D311D21
:2022A0002B1FAE9F300D211DF79FA12D44279927F69FA00D411D9B1FE79FA00D411D9B1FD8
:2022C000E69F400D911DF42FE92F40911F0C4F9F51198B0B3B0B2B0B9091200C9F9F5019E9
:2022E00081093B0B2B0BA091210CAF9F801931092B0B4E9F501981093B0B2B0B9E9F8019F1
:2023000031092B0BAE9F3019210982C04091270C4F9F510D8B1F3B1F2B1F9091280C9F9F1A
:20232000500D811D3B1F2B1FA091290CAF9F800D311D2B1F4E9F500D811D3B1F2B1F9E9F5C
:20234000800D311D2B1FAE9F300D211DF79FA12D44279927F69FA00D411D9B1FE79FA00D74
:20236000411D9B1FE69F400D911DF42FE92F4091230C4F9F51198B0B3B0B2B0B9091240CCF
:202380009F9F501981093B0B2B0BA091250CAF9F801931092B0B4E9F501981093B0B2B0B7B
:2023A0009E9F801931092B0BAE9F30192109F79FA12D44279927F69FA00D411D9B1FE79FA8
:2023C000A00D411D9B1FE69F400D911DF42FE92F40911F0C4F9F510D8B1F3B1F2B1F9091C6
:2023E000200C9F9F500D811D3B1F2B1FA091210CAF9F800D311D2B1F4E9F500D811D3B1FC1
:202400002B1F9E9F800D311D2B1FAE9F300D211D1124CA2EF983EA837B836C835D834E8394
:202420009F8390E0932BA0E0B0E0A22B04C082A993A9A4A9B5A90090DA0404C0880F991F18
:20244000AA1FBB1F0A94D2F729E73DE041E0488BF9014591559165917491481759076A0770
:202460007B0708F493C4A0C44091D5045091D6046091D7047091D804481759076A077B0763
:2024800008F0C5C18091D40481111FC0DF01AE5BBF4FED90FD900D911C9113971D962D91FD
:2024A0003D914D915C9162A973A984A995A90E94264881E08093D404E091FF0CF091000D8B
:2024C00042A853A864A875A88AC18091D0049091D104A091D204B091D30442AD53AD64ADA9
:2024E00075AD84179507A607B70708F072C10097A105B10549F44090A7045090A8046090C6
:20250000A9047090AA046BC150E06885482E292F8A2FA985FA85EB857C854D853E859F85B9
:202520004091EE0C449DE12D77273091EF0C349DE00D711D1090F00C149C700D429FE00DA4
:20254000711D329F700D489F700DAE2FF72FAE9F412D33279927A79F400D311D951FFE9F31
:20256000400D311D951FF79F300D911DA32FF92FAE9F612D33279927A79F600D311D951FE7
:20258000FE9F600D311D951FF79F300D911DA32FF92F44274090A7042091A8048091A904B3
:2025A00000902B0C052A09F483C03091270C3A9F4119450A250B850B9091280C9A9F4019C8
:2025C0004108250B850B6091290C6A9F40182109850B3F9F40194108250B850B9F9F4018DB
:2025E0002109850B6F9F20198109AE9F612D33279927A79F600D311D951FFE9F600D311D4E
:20260000951FF79F300D911DA32FF92F3091230C3A9F410D451E251F851F9091240C9A9F9F
:20262000400D411C251F851F6091250C6A9F400C211D851F3F9F400D411C251F851F9F9F01
:20264000400C211D851F6F9F200D811DAE9F612D33279927A79F600D311D951FFE9F600DBF
:20266000311D951FF79F300D911DA32FF92F30911F0C3A9F4119450A250B850B9091200C62
:202680009A9F40194108250B850B6091210C6A9F40182109850B3F9F40194108250B850B26
:2026A0009F9F40182109850B6F9F2019810982C03091270C3A9F410D451E251F851F909130
:2026C000280C9A9F400D411C251F851F6091290C6A9F400C211D851F3F9F400D411C251FD2
:2026E000851F9F9F400C211D851F6F9F200D811DAE9F612D33279927A79F600D311D951F47
:20270000FE9F600D311D951FF79F300D911DA32FF92F3091230C3A9F4119450A250B850B00
:202720009091240C9A9F40194108250B850B6091250C6A9F40182109850B3F9F40194108F0
:20274000250B850B9F9F40182109850B6F9F20198109AE9F612D33279927A79F600D311DA2
:20276000951FFE9F600D311D951FF79F300D911DA32FF92F30911F0C3A9F410D451E251F64
:20278000851F9091200C9A9F400D411C251F851F6091210C6A9F400C211D851F3F9F400DFD
:2027A000411C251F851F9F9F400C211D851F6F9F200D811D11246887A987FA87EB877C8745
:2027C0004D873E879F87512C522A612C712C682A06C0E15BFF4F408051806280738000903F
:2027E000DA0404C0440C551C661C771C0A94D2F789E79DE021E0FC01459155916591749158
:20280000441555056605770508F431C33BC380911A0290911B02A0911C02B0911D02B7FF60
:2028200064C0E95BFF4F80809180A280B3800090DA0404C0880C991CAA1CBB1C0A94D2F7FD
:2028400089E79DE021E0FC014591559165917491481559056A057B0550F4B694A794979438
:202860008794220F04963DE08539930761F72093D90420E282169104A104B10408F496C337
:2028800080E2881A9108A108B108811498E09906A104B10408F466C3A4E09A9EC00111245C
:2028A0008758964FFC01329625913491B82D6627B39FA001B29F410D561F0694461F561F27
:2028C000112460E070E0FC0125913491C901A0E0B0E0841B950BA60BB70B80931A029093DD
:2028E0001B02A0931C02B0931D0280901A0290901B02A0901C02B0901D028091FF0C9091B5
:20290000000D892B09F0EBC10E94B3489093000D8093FF0C892B09F4E2C1E091FF0CF09115
:20292000000D808183FF3EC085899689A789B08D80937C0290937D02A0937E02B0937F02C5
:20294000818D928DA38DB48D8093800290938102A0938202B0938302858D968DA78DB0A165
:202960008093840290938502A0938602B093870281A192A1A3A1B4A1809388029093890254
:20298000A0938A02B0938B029091F60B8091F50B981709F4B9CF8091F50B8F5F8F70809330
:2029A000F50BB2CF85889688A788B08C81E081149104A104B10409F480E0218D328D438D81
:2029C000548D2B8B3C8B4D8B5E8B232B242B252B09F08260458D568D678D70A141155105AA
:2029E0006105710509F084608093AB041092D0041092D1041092D2041092D3041092DB04FD
:202A00001092DC041092DD041092DE04DF01A95BBF4F8D919D910D90BC91A02DF12C89335F
:202A200030E39307A105B10560F4880F991FAA1FBB1F893320E39207A105B10510F4F39408
:202A4000EECFF092DA048F2D90E09A8B898B85A196A1A7A1B0A50F2C04C0880F991FAA1FE3
:202A6000BB1F0A94D2F78093E3049093E404A093E504B093E604442455243201481A590AEE
:202A80006A0A7B0A4092CC045092CD046092CE047092CF044092C8045092C9046092CA0442
:202AA0007092CB044092C4045092C5046092C6047092C7044092C0045092C1046092C20482
:202AC0007092C304880C991CAA1CBB1C8092B0049092B104A092B204B092B3040B891C8990
:202AE0002D893E89000F111F221F331F0093B4041093B5042093B6043093B704440F551F2E
:202B0000661F771F4093B8045093B9046093BA047093BB0441A152A163A174A1440F551F43
:202B2000661F771F4093BC045093BD046093BE047093BF04880F991FAA1FBB1F8093AC0413
:202B40009093AD04A093AE04B093AF041092E7041092E8041092E9041092EA0482A593A52D
:202B6000A4A5B5A50F2C04C0880F991FAA1FBB1F0A94D2F78093DF049093E004A093E10445
:202B8000B093E20486A597A5A0A9B1A904C0880F991FAA1FBB1FFA94D2F78093D5049093E6
:202BA000D604A093D704B093D80441A5EA5BFF4F50818091A60458130AC08091190290E038
:202BC000242F042E000C330B2817390731F05093A604409319020E9478480E94F9222FEFCE
:202BE0003FEFA90120931A0230931B0240931C0250931D02E091FF0CF091000DDF01DE96FD
:202C0000ED90FD900D911C9122A933A944A955A9E55BFF4F60817181828193810E94264845
:202C20001092D404E091FF0CF091000DE55BFF4F4080518062807380098804C0440C551C06
:202C4000661C771C0A94D2F789E79DE021E0FC0145915591659174914415550566057705BC
:202C600058F47694679457944794220F049645E95DE04817590759F72093D90450E24516DB
:202C800051046104710408F4BAC130E2431A510861087108411448E054066104710408F437
:202CA0008BC154E0559EC00111248758964FFC01329625913491742D6627739FA001729FB5
:202CC000410D561F0694461F561F1124FC0185909490A12CB12C841A950AA108B1088092F7
:202CE000EB049092EC04A092ED04B092EE048091EB049091EC04A091ED04B091EE04AC0169
:202D0000BD01009721E0A207B10520F04FEF5FEF60E070E0841B950BA60BB70B8093EB041E
:202D20009093EC04A093ED04B093EE04F89480918400909185004096DA94DD2041F0240EBC
:202D4000351E2816390610F40C945C0E01C01C013092890020928800789466960FB6F894D9
:202D6000DEBF0FBECDBFDF91CF911F910F91FF90EF90DF90CF90BF90AF909F908F907F9076
:202D80006F905F904F903F902F900895B695A795979587954889440F488B2C5F3F4F5DE01F
:202DA0002539350709F054CB78897093D90480329105A105B10508F455C08097A109B10950
:202DC000811558E09507A105B105F0F074E0979F900111242758364FF9013296459154917C
:202DE000EE27859FB001849F610D7E1F06946E1F7E1F1124F90185909490A12CB12C861A45
:202E0000970AA108B10821C0AC01BD017695679557954795FA01EC7F9F0127583A4FF9018C
:202E200085909490F9013296459154918770849F9001859F300D1124F3E036952795FA95B2
:202E4000E1F7821A930AA12CB12C480C591C6A1C7B1C4092DB045092DC046092DD04709289
:202E6000DE044BCD80E290E0A0E0B0E0A6CF7694679457944794220F0496ADE085399A077F
:202E800009F0B9CC2093D904B0E24B1651046104710408F461C090E2491A510861087108D5
:202EA0004114A8E05A0661047104F8F0B4E05B9EC00111248758964FFC013296259134918C
:202EC000742D6627739FA001729F410D561F0694461F561F1124FC0185909490A12CB12CB4
:202EE000841A950AA108B10822C0D301C201B695A79597958795FC01EC7FCF0187589A4FEB
:202F0000FC0185909490FC01329625913491442D4770429FC001439F900D112463E096954F
:202F200087956A95E1F7881A990AA12CB12C8091D0049091D104A091D204B091D304880D20
:202F4000991DAA1DBB1D8093D0049093D104A093D204B093D304D1CC60E2462E512C612CBD
:202F6000712C99CFD501C401B695A79597958795FC01EC7FCF0187589A4FFC01259134916A
:202F8000FC01329645915491682D6770649FC001659F900D112443E0969587954A95E1F78A
:202FA000281B390BC901A0E0B0E097CC50E2852E912CA12CB12C64CCD301C201B695A795B3
:202FC00097958795FC01EC7FCF0187589A4FFC0185909490FC01329625913491442D47700B
:202FE000429FC001439F900D1124A3E096958795AA95E1F7881A990AA12CB12C70CE90E2FB
:20300000492E512C612C712C40CE80ED882E87E0982EA12CB12C78CC4F925F926F927F9262
:203020008F929F92AF92BF92DF92EF92FF920F931F93CF93DF93D82EC82FD0E0FE01EF5A0C
:20304000FB4F64917E01EE0CFF1CEE0CFF1CF701E157F04F4590559065907490062E000C26
:20306000770B880B990B0E94D7734B015C0120E030E040EC5FE3C301B2010E943674A5011B
:2030800094010E943674AB01BC0100E010E098018D2D0E94A238F701ED57F04F2591359150
:2030A00045915491C501B4010E9436744B015C0120E030E0A9010E94D173882309F447C096
:2030C00000E010E09801B501A40170588D2D0E94A238FE01E058F04F6491611117C0EFE4A7
:2030E000F4E18491EF012196882321F00E947C3AFE01F7CFEEE5FFE08491EF01219688234D
:2031000021F00E947C3AFE01F7CF6AE0F701EB5FFB4E459055906590749070E080E090E0D9
:203120000E94D7739B01AC01C301B2010E94E3782B013C01A5019401C501B4010E940778A6
:20314000AB01BC01930182018D2D0E94A23881E090E00D2C01C0880F0A94EAF79091AE0207
:20316000982B9093AE0290918A05892B80938A05F701E457FD4F10821182128213828D2D2C
:203180000E945838F701E95DFB4F85919591A591B491E701C556DA4F88839983AA83BB8300
:2031A0000E949838F701E557FA4F88819981AA81BB8180839183A283B383DF91CF911F91A4
:2031C0000F91FF90EF90DF90BF90AF909F908F907F906F905F904F900895EF92FF920F93C9
:2031E0001F93CF93DF931F921F92CDB7DEB782E08093C0001092C50087E08093C4008091E3
:20320000C10080618093C1008091C10088608093C1008091C10080688093C100E7E5FFE071
:2032200084918F010F5F1F4F882321F00E947C3AF801F6CFEFE4F4E184918F010F5F1F4F12
:20324000882321F00E947C3AF801F6CF14B710FF0DC0EEE4FFE084917F019FEFE91AF90A1B
:20326000882321F00E947C3AF701F5CF11FF0DC0EDE3FFE084917F019FEFE91AF90A88231E
:2032800021F00E947C3AF701F5CF12FF0DC0EBE2FFE084917F019FEFE91AF90A882321F09A
:2032A0000E947C3AF701F5CF13FF0DC0EAE1FFE084917F019FEFE91AF90A882321F00E94EA
:2032C0007C3AF701F5CF15FF0CC0E9E0FFE084918F010F5F1F4F882321F00E947C3AF80166
:2032E000F6CF14BEE2E0FFE084918F010F5F1F4F882321F00E947C3AF801F6CF80E20E943F
:203300007C3AEBEFFEE084918F010F5F1F4F882321F00E947C3AF801F6CF8AE00E947C3A2A
:20332000EFE4F4E184918F010F5F1F4F882321F00E947C3AF801F6CFEBEEFEE084918F0136
:203340000F5F1F4F882321F00E947C3AF801F6CFE0EEFEE084918F010F5F1F4F882321F0D6
:203360000E947C3AF801F6CFEDEBFEE084918F010F5F1F4F882321F00E947C3AF801F6CF2E
:20338000EFE4F4E184918F010F5F1F4F882321F00E947C3AF801F6CFE6EAFEE084918F01DF
:2033A0000F5F1F4F882321F00E947C3AF801F6CFEFE4F4E184918F010F5F1F4F882321F07A
:2033C0000E947C3AF801F6CF20911C0D30911D0DCE0101962115310519F482529D4002C0C0
:2033E000821B930B9A83898369817A8187E99EE00E94224960ED75E080E89EE00E942249F4
:203400008AE00E947C3A81E080930D0380930E0380930F03809310030E94172780E00E9415
:203420009C238CE0ECECF2E0ABE9B5E001900D928A95E1F70E949838249A80910101806242
:20344000809301018091010180648093010187ED80937A0010927E0010927D0080917D007D
:20346000806280937D0080917D00806480937D0080E888BD80916E00846080936E00809136
:2034800001018061809301016AEF70E080E090E00E94134F85E090E09093990C8093980C63
:2034A00060E080912C0290912D020E94E33E20E030E040EA50E40E94D17387FF0AC08091C5
:2034C0002C0290912D02409790932D0280932C02E7CF83E191E0909329028093280260E0AE
:2034E00080919D0C90919E0C0E94E33E20E030E849E853E40E942D7A181654F480919D0C8B
:2035000090919E0C409690939E0C80939D0CE7CF80912A0290912B020E94E94020E030E065
:2035200040EA50E40E94D17387FF0AC080912A0290912B02409790932B0280932A02E8CF4F
:2035400080919B0C90919C0C0E94E94020E030E046E153E40E942D7A181654F480919B0C3A
:2035600090919C0C409690939C0C80939B0CE8CF0E94D4586D98759A809104018D7F809359
:20358000040180910501809582708093030153985B9A1092B4021092B302819A879A809115
:2035A0000A01826080930A013B9A0E9A3B9A579A5F9A829A8A9A809107018160809307016F
:2035C0008091080180958170809306013F9A479A0A9A129A3F9A479A809A88985F9A8091A9
:2035E000AE028E7F8093AE02869A8E988A9A8091AE028D7F8093AE02399A419880910A0189
:20360000886080930A0180910B01887080930901809108018095817080930601479A809146
:20362000AE028B7F8093AE020C9A1498129A809180008C7F8093800080918100877E886061
:2036400080938100809180008F738093800080918100887F82608093810080E090E49093AA
:20366000890080938800109285001092840080916F00826080936F0081E08093B4027894BF
:203680000E9478486B9A9D9A8091010188608093010198E288E10FB6F894A8958093600098
:2036A0000FBE909360000F900F90DF91CF911F910F91FF90EF9008955F9A8091AE028E7FEA
:2036C0008093AE028A9A8091AE028D7F8093AE02809108018095817080930601479A809147
:2036E000AE028B7F8093AE02129A0895EEEFFBE18491EF012196882321F00E947C3AFE017C
:20370000F7CFE0E6FEE08491EF012196882321F00E947C3AFE01F7CF0E94C540CDDF2FEF39
:203720008BE49DE1215080409040E1F700C00000F8942FEF84E39CE0215080409040E1F79D
:2037400000C000000E94C540A895FECF2F923F924F925F926F927F928F929F92AF92BF929E
:20376000CF92DF92EF92FF920F931F93CF93DF9300D01F92CDB7DEB70E944B4F6B017C017E
:2037800080910002882309F47BC080911603882309F476C040917E0550917F0560918005FC
:2037A0007091810597018601041B150B260B370B37FD79C0833051F134F481300CF460C056
:2037C000EFE4F4E106C0843009F05AC0EFE4F4E13BC084918F010F5F1F4F1B830A838823BA
:2037E00029F00E947C3AEA81FB81F3CFEBE0FEE084918F010F5F1F4F1B830A83882309F4B2
:203800003FC00E947C3AEA81FB81F2CFEFE4F4E184918F010F5F1F4F1B830A83882329F091
:203820000E947C3AEA81FB81F3CFE4EFFDE084918F010F5F1F4F1B830A83882309F10E94E4
:203840007C3AEA81FB81F3CF84918F010F5F1F4F1B830A83882329F00E947C3AEA81FB815A
:20386000F3CFECEDFDE084918F010F5F1F4F1B830A83882329F00E947C3AEA81FB81F3CF5F
:203880002091000230E0A8EEB3E00E94F777C60ED71EE81EF91EC0927E05D0927F05E09219
:2038A0008005F092810580919904843030F40E94CE3B811102C00E949C3A0E944B4FC090F2
:2038C000AF02D090B002E090B102F090B202C114D104E104F10489F10091A4021091A50251
:2038E0002091A6023091A7020C0D1D1D2E1D3F1D6B017C01C01AD10AE20AF30AF7FC1DC0B4
:20390000EEEFFBE184918F010F5F1F4F1B830A83882329F00E947C3AEA81FB81F3CF60918C
:20392000F30C7091F40C86E29EE00E943B498AE00E947C3A8DE19EE0D9DEC0900102D09063
:203940000202E0900302F0900402C114D104E104F104E1F13091F60B2091F50B321749F01D
:203960006093A4027093A5028093A6029093A7022DC00091A4021091A5022091A6023091F7
:20398000A7020C0D1D1D2E1D3F1DDC01CB01801B910BA20BB30BB7FD19C05F9A8091AE02F2
:2039A0008E7F8093AE028A9A8091AE028D7F8093AE02809108018095817080930601479A68
:2039C0008091AE028B7F8093AE02129A9091F60B8091F50B981791F0E091F50B1DE5E19F57
:2039E000F0011124E458F94F60818091F50B9091F60B981729F08F5F8F70F9CF60911D0678
:203A000070E089E00E944C4E80919A0C882309F4FBC00091350210913602C0903702CC821F
:203A2000D0903802DA826091A2027091A3026E5F7F4F072E000C880B990B0E94D7739801BD
:203A4000A6010E94D17387FDDFC0F090F50B212C312CE12C19828091F60B8F1509F460C011
:203A60008F2D90E02DE5289FF001299FF00D1124EB5DF94F458956896789708D452B462B4B
:203A8000472B81F4418D528D638D748D452B462B472B41F4458D568D678D70A1452B462B7E
:203AA000472BC9F14DE5489F9001499F300D1124C9018B5D994F6C01FC01618172818381F9
:203AC00094810E94727A4B015C01F60161A172A183A194A10E94D5732B013C01F60165A1E5
:203AE00076A187A190A50E94D5739B01AC01C301B2010E94E378A50194010E9436745B01C8
:203B00006C0191014E2D59810E942D7A18161CF41501EC2CD98281E08F0D8F70F82E9BCFB5
:203B20002091390230913A0240913B0250913C02B1018E2D99810E94367498014C815A815B
:203B40000E9407786B017C019B01AC01B8018C819A810E942D7A1816B4F0009131021091B1
:203B60003202F0913302FC83209134022A8398014F2F5A81B601C7010E942D7A18161CF054
:203B80008601EC82FA82C0908205D0908305E0908405F090850598014C815A81C701B60132
:203BA0000E942D7A1816D4F420E037ED43EA5CE3B8018C819A810E9436744B015C0128E454
:203BC00031EE4AE75FE3C701B6010E943674A50194010E9407788B018C839A83C801AC817E
:203BE000BA818093820590938305A0938405B0938505B801CD010E944B797093A302609334
:203C0000A20280E00E9479400E9497448091A102882309F444C00E944B4F00919D0210915B
:203C20009E0220919F023091A002DC01CB01801B910BA20BB30BB7FD32C00E944B4F6B0196
:203C40007C012091A10230E0A8EEB3E00E94F777C60ED71EE81EF91EC0929D02D0929E0271
:203C6000E0929F02F092A0020E94773F8AE00F900F900F900F90DF91CF911F910F91FF9020
:203C8000EF90DF90CF90BF90AF909F908F907F906F905F904F903F902F900C947C3A0F909C
:203CA0000F900F900F90DF91CF911F910F91FF90EF90DF90CF90BF90AF909F908F907F9040
:203CC0006F905F904F903F902F9008958F929F92AF92BF92CF92DF92EF92FF920F931F93D0
:203CE000CF93DF93CDB7DEB728970FB6F894DEBF0FBECDBF80913D02882321F08BE895E0DD
:203D00000E948D288091070C83FDA5C0C0909705D0909805E0909905F0909A052091A705D0
:203D20003091A8054091A9055091AA05C701B6010E94D173882309F48EC080911F068111E3
:203D400031C0609120067091210680912206909123060E944B79209126023091270262170E
:203D6000730704F5C092A705D092A805E092A905F092AA05EFE4F4E184918F010F5F1F4F49
:203D8000882321F00E947C3AF801F6CFE1ECFDE084918F010F5F1F4F882321F00E947C3A12
:203DA000F801F6CF8090970590909805A0909905B0909A052091A7053091A8054091A905E5
:203DC0005091AA05C501B4010E9406786B017C0120E030E0A9010E942D7A87FF04C0F7FA91
:203DE000F094F7F8F094E091F50C84E0E89FF0011124EE5DFD4F2081318142815381C70100
:203E0000B6010E94367420E030E048E453E40E942D7A181604F58092A7059092A805A092FD
:203E2000A905B092AA05EFE4F4E184918F010F5F1F4F882321F00E947C3AF801F6CFE2EA1C
:203E4000FDE084918F010F5F1F4F882321F00E947C3AF801F6CF60913E0270913F02072E8A
:203E6000000C880B990B0E94D77320911E0230911F0240912002509121020E9436742AE013
:203E800037ED43E25CE30E9436746D837E838F839887E090F50C19821A821B821C82CE017A
:203EA00001966C018E010B5F1F4F27E935E043E955E06FE875E08BE895E00E94312980E120
:203EC000EBE8F5E0ABE9B5E001900D928A95E1F728960FB6F894DEBF0FBECDBFDF91CF9115
:203EE0001F910F91FF90EF90DF90CF90BF90AF909F908F900895CF93DF9380E00E94534CA8
:203F0000C1E7D5E0688379838A839B8381E00E94534C6C837D838E839F8382E00E94534CCB
:203F2000688779878A879B87DF91CF910895CF93DF9380916F0580937005E9E9FDE084914D
:203F4000EF012196882321F00E947C3AFE01F7CF8091180D9091190DA0911A0DB0911B0DA3
:203F6000BC01CD016F5F7F4F8F4F9F4F0E94E83C8AE00E947C3AE0919804F0E0E35FFC4F5C
:203F80008081882321F0DF91CF910C941F29DF91CF91089580916F00982F927081FF05C0B1
:203FA00080916F008D7F80936F008091F50B8093F60B8093AB058093040684E68093240647
:203FC00028EE33E03093190C2093180C992329F080916F00826080936F0081E08093010DBE
:203FE0000E94414B88DF8CE0E1E7F5E0ABE9B5E001900D928A95E1F70C9498381F93CF934F
:20400000DF93182F6115710519F4E6E0F2E10AC0FB018491EF0121968823B9F30E947C3A24
:20402000FE01F7CF8491EF012196882321F00E947C3AFE01F7CF111103C0E1E0F2E102C0EB
:20404000E7EFF1E18491EF012196882321F00E947C3AFE01F7CF8AE0DF91CF911F910C9499
:204060007C3A2F923F924F925F926F927F928F929F92AF92BF92CF92DF92EF92FF920F93AA
:204080001F93CF93DF93CDB7DEB76C970FB6F894DEBF0FBECDBF8C015B015A834983FC01A8
:2040A000E95BFF4F20813181428153812D8B3E8B4F8B588FCA01B9010E94D5736B017C01EA
:2040C000D5012D913D914D915C910E9436740E94CD780E9450796D877E878F87988BE98179
:2040E000FA812081318142815381C701B6010E9436740E94CD780E945079698B7A8B8B8B2F
:204100009C8B2D853E854F855889283731054105510540F448E750E060E070E04D875E8741
:204120006F87788B69897A898B899C89683771058105910540F488E790E0A0E0B0E0898BF0
:204140009A8BAB8BBC8BF801ED5AFF4F20813181428153812D833E834F835887CA01B9019E
:204160000E94D7732B013C016D857E858F8598890E94D57369877A878B879C8720E030E0A0
:20418000A901C301B2010E94D173882329F1A7019601C701B6010E9436744B015C012985F2
:2041A0003A854B855C85CA01B9010E9436749B01AC01C501B4010E9406784B015C01A3018D
:2041C0009201C301B2010E9407789B01AC01C501B4010E94E37803C060E070E0CB010E9432
:2041E000CD780E94507969837A838B839C836D817E818F81988590958095709561957F4FDC
:204200008F4F9F4F0E94D7734B015C0169897A898B899C890E94D5736D837E838F83988703
:2042200020E030E0A901C501B4010E94D173882349F12D813E814F815885CA01B9010E943D
:204240003674698F7A8F8B8F9C8FA7019601C701B6010E9436749B01AC01698D7A8D8B8D06
:204260009C8D0E9406786B017C01A5019401C501B4010E9407789B01AC01C701B6010E94CB
:20428000E37803C060E070E0CB010E947C79D80195968D909D90AD90BC909897750164012C
:2042A00029813A814B815C81C21AD30AE40AF50A0E945079C61AD70AE80AF90AF7FEA1C0D3
:2042C00020E030E0A901C301B2010E94D173882309F443C0C501B4010E94D5736B017C01CE
:2042E000A3019201C301B2010E9407789B01AC01C701B6010E9436746B017C0129853A8585
:204300004B855C85CA01B9010E9436749B01AC01C701B6010E9406786B017C012D813E81DD
:204320004F815885CA01B9010E9436749B01AC01C701B6010E9407786B017C0120E030E01D
:2043400040E850E4C301B2010E9436749B01AC01C701B6010E94E37803C060E070E0CB015A
:204360000E94CD787B018D83998320E030E0A9010E942D7A181624F0E12CF12C1D82198205
:20438000B7018D8199810E94507969837A838B839C8386169706A806B90620F489829A82DB
:2043A000AB82BC82A3019201C301B2010E9407786B017C0169817A818B819C810E94D573E2
:2043C0009B01AC01C701B6010E9436746B017C0129853A854B855C85CA01B9010E943674F1
:2043E0009B01AC01C701B6010E9407780E94727A0E9450796D8B7E8B8F8B988FC12CD12CAF
:2044000076016D897E898F89988D2D853E854F855889621B730B840B950B0E94D573A30109
:2044200092010E94E37820E034E244EF59E40E9436740E9450794B015C016D897E898F89F1
:20444000988D29893A894B895C89621B730B840B950B0E94D573A30192010E94E37820E0C1
:2044600034E244EF59E40E9436740E9450792B013C013FE683169104A104B10480F4F40180
:20448000EE0FFF1FEE0FFF1FEB5CFD4E85919591A591B4918D83292E3A2EB98708C0C50100
:2044A000B4010E9456496D83272E382E99874FE6441651046104710470F4F201EE0FFF1F0B
:2044C000EE0FFF1FEB5CFD4E45915591659174919A01CB0105C0C301B2010E9456499B01F8
:2044E00049815A816B817C81D8019A964D935D936D937C939D974C0D5D1D6E1D7F1DF8011F
:2045000046A757A760AB71ABE55BFF4F4D855E856F8578894083518362837383D6968D9254
:204520009D92AD92BC92D997F80142AE53AE64AE75AEFE964D814083218232825985538300
:20454000349620833183828393836D897E898F89988DD2966D937D938D939C93D5973D96DF
:2045600029893A894B895C8920833183428353836C960FB6F894DEBF0FBECDBFDF91CF9102
:204580001F910F91FF90EF90DF90CF90BF90AF909F908F907F906F905F904F903F902F90A9
:2045A0000895CF93DF93EC018881882311F0739A01C073988981882311F0A59A01C0A5981C
:2045C000809102019A8191118095887080930001688170E085E00E944C4E698170E084E071
:2045E0000E944C4E6A8170E086E0DF91CF910C944C4E80918905659902C0816001C08E7FC6
:2046000080938905909103018091890591FD02C0826001C08D7F80938905809189054B9912
:2046200002C0846001C08B7F809389059091880580918905981731F097E090938705809312
:2046400088050AC080918705882331F0815080938705882309F441C08091B402882309F412
:204660003FC08091AB0480FF10C08091A60480FF0CC08091860580FF08C0809197048160B6
:204680008093970480E00E9426598091AB0481FF10C08091A60481FF0CC08091860581FFB8
:2046A00008C08091970482608093970481E00E9426598091AB0482FF13C08091A60482FF24
:2046C0000FC08091860582FF0BC08091970484608093970482E00C94265990938605BCCF2B
:2046E0000895CF93DF93EBE1F2E18491882349F0CCE1D2E10E947C3AFE018491219681119C
:20470000F9CF8CB1C1E085FB882780F965E172E18C2774DC80910301869581706FE072E1EC
:204720008C276CDC89B183FB882780F969E072E18C27DF91CF9162CC0F931F93CF93C82FA4
:20474000882319F0ECEEF1E10CC0EFE4F4E184918F010F5F1F4F8823A9F30E947C3AF8016C
:20476000F6CF84918F010F5F1F4F882321F00E947C3AF801F6CFEEEEFFE084918F010F5F53
:204780001F4F882321F00E947C3AF801F6CF8AE00E947C3A8AE00E947C3AC1112CC0EFE4C4
:2047A000F4E184918F010F5F1F4F882321F00E947C3AF801F6CFE9EDF1E184918F010F5F16
:2047C0001F4F882321F00E947C3AF801F6CF8091B902882321F08AE00E947C3A3AC0EEEC7B
:2047E000F1E184918F010F5F1F4F882391F10E947C3AF801F6CF4091B5025091B602609111
:20480000B7027091B80285EC91E10E9405498AE00E947C3A8091B902811127C0CC2319F052
:20482000EAEBF1E10CC0EFE4F4E184918F010F5F1F4F8823A9F30E947C3AF801F6CF84916A
:204840008F010F5F1F4F882381F00E947C3AF801F6CFEFE4F4E184918F010F5F1F4F8823E6
:2048600051F20E947C3AF801F6CFC11124C0EFE4F4E184918F010F5F1F4F882321F00E94A2
:204880007C3AF801F6CFE9EAF1E184918F010F5F1F4F882321F00E947C3AF801F6CFEFE4D9
:2048A000F4E184918F010F5F1F4F882321F00E947C3AF801F6CF4091080C5091090C609104
:2048C0000A0C70910B0C81EA91E10E94054940910C0C50910D0C60910E0C70910F0C8EE95C
:2048E00091E10E9405494091100C5091110C6091120C7091130C8BE991E10E940549409195
:20490000140C5091150C6091160C7091170C88E991E10E9405498AE00E947C3AC11124C0F3
:20492000EFE4F4E184918F010F5F1F4F882321F00E947C3AF801F6CFEAE7F1E184918F0134
:204940000F5F1F4F882321F00E947C3AF801F6CFEFE4F4E184918F010F5F1F4F882321F0C4
:204960000E947C3AF801F6CF4091F0055091F1056091F2057091F30581E791E10E940549D9
:204980004091F4055091F5056091F6057091F7058EE691E10E9405494091F8055091F90506
:2049A0006091FA057091FB058BE691E10E9405494091FC055091FD056091FE057091FF0585
:2049C00088E691E10E9405498AE00E947C3AC11124C0EFE4F4E184918F010F5F1F4F8823BB
:2049E00021F00E947C3AF801F6CFE6E4F1E184918F010F5F1F4F882321F00E947C3AF80166
:204A0000F6CFEFE4F4E184918F010F5F1F4F882321F00E947C3AF801F6CF4091BA02509168
:204A2000BB026091BC027091BD028DE391E10E94E8484091BE025091BF026091C0027091AF
:204A4000C1028AE391E10E94E8484091C2025091C3026091C4027091C50287E391E10E94AA
:204A6000E8484091C6025091C7026091C8027091C90284E391E10E94E8488AE00E947C3ACF
:204A8000C11124C0EFE4F4E184918F010F5F1F4F882321F00E947C3AF801F6CFEAEEF0E1BC
:204AA00084918F010F5F1F4F882321F00E947C3AF801F6CFEFE4F4E184918F010F5F1F4F7A
:204AC000882321F00E947C3AF801F6CF4091E8055091E9056091EA057091EB0581EE90E1C6
:204AE0000E9405494091EC055091ED056091EE057091EF058EED90E10E9405494091E405C2
:204B00005091E5056091E6057091E7058BED90E10E9405498AE00E947C3AC1113FC0EFE4C2
:204B2000F4E184918F010F5F1F4F882321F00E947C3AF801F6CFE3E9F0E184918F010F5F9D
:204B40001F4F882321F00E947C3AF801F6CFE8E6F0E184918F010F5F1F4F882321F00E9497
:204B60007C3AF801F6CFE9E5F0E184918F010F5F1F4F882321F00E947C3AF801F6CF8AE065
:204B80000E947C3AEFE4F4E184918F010F5F1F4F882321F00E947C3AF801F6CF40910006EB
:204BA00050910106609102067091030680E590E10E94E8484091190650911A0660911B065F
:204BC00070911C068DE490E10E940549409115065091160660911706709118068AE490E1EB
:204BE0000E9405494091C0055091C1056091C2057091C30587E490E10E9405494091C405A1
:204C00005091C5056091C6057091C70584E490E10E9405494091C8055091C9056091CA058A
:204C20007091CB0581E490E10E9405494091CC055091CD056091CE057091CF058EE390E10D
:204C40000E9405498AE00E947C3AC11124C0EFE4F4E184918F010F5F1F4F882321F00E9465
:204C60007C3AF801F6CFE0E3F0E184918F010F5F1F4F882321F00E947C3AF801F6CFEFE406
:204C8000F4E184918F010F5F1F4F882321F00E947C3AF801F6CF4091CC025091CD026091AC
:204CA000CE027091CF0287E290E10E9405494091D0025091D1026091D2027091D30284E230
:204CC00090E10E9405494091D4025091D5026091D6027091D70281E290E10E9405498AE043
:204CE0000E947C3AC11124C0EFE4F4E184918F010F5F1F4F882321F00E947C3AF801F6CFAB
:204D0000E2E1F0E184918F010F5F1F4F882321F00E947C3AF801F6CFEFE4F4E184918F015F
:204D20000F5F1F4F882321F00E947C3AF801F6CF4091FC025091FD026091FE027091FF0223
:204D400089E090E10E9405492CEA35EC47E25EE36091F8027091F9028091FA029091FB02D6
:204D60000E94E378AB01BC0186E090E10E9405492CEA35EC47E25EE36091F4027091F50286
:204D80008091F6029091F7020E943674AB01BC0183E090E10E9405498AE00E947C3AC111E3
:204DA0000CC0EFE4F4E184918F010F5F1F4F882321F00E947C3AF801F6CF4091090350916E
:204DC0000A0360910B0370910C038AEF9FE00E9405492CEA35EC47E25EE360910503709134
:204DE000060380910703909108030E94E378AB01BC0187EF9FE00E9405492CEA35EC47E2B8
:204E00005EE3609101037091020380910303909104030E943674AB01BC0184EF9FE00E94CE
:204E200005498AE0CF911F910F910C947C3ACF92DF92EF92FF920F931F93CF93DF93CDB724
:204E4000DEB72C970FB6F894DEBF0FBECDBF48E05CE020EF35E0AAEBB2E080E090E0FC0137
:204E6000E252F04FC590D590E590F490FA01C192D192E192F192AF01FC01E253F04FC590EF
:204E8000D590E590F490F901C192D192E192F1929F01FC01E254F04FC590D590E590F49049
:204EA000CD92DD92ED92FD92049680319105B9F680E29EE4A0E0B0E080930006909301064F
:204EC000A0930206B093030680E090E0A8E4B4E48093E8059093E905A093EA05B093EB05F1
:204EE00080E090E4ACE1B6E48093EC059093ED05A093EE05B093EF0580E090E0AAEFB4E440
:204F00008093E4059093E505A093E605B093E7051092190610921A0610921B0610921C0631
:204F20001092150610921606109217061092180680E090E0A0E0B1E48093C0059093C105D1
:204F4000A093C205B093C3058093C4059093C505A093C605B093C7058AE999E9A9E9BEE34E
:204F60008093C8059093C905A093CA05B093CB0580E090E0A0EAB0E48093CC059093CD0584
:204F8000A093CE05B093CF058CE0ECECF2E0DF011D928A95E9F78EEA97E4A9E6B1E4809326
:204FA000FC029093FD02A093FE02B093FF0280EA92E4AFE3BEE38093F8029093F902A093E9
:204FC000FA02B093FB0280ED9EE1AEE8B3E48093F4029093F502A093F602B093F70283EC83
:204FE00095E3A4E7B3E48093090390930A03A0930B03B0930C038BEA9DE7A0EFB0E4809306
:20500000050390930603A0930703B093080380E394E0A8EFB4E48093010390930203A09359
:205020000303B09304031092B90280E090E0A0EEBFE38093B5029093B602A093B702B093EF
:20504000B8021092B4021092B3020E94784880919B0590919C05A0919D05B0919E0589834F
:205060009A83AB83BC8380919F059091A005A091A105B091A2058D839E83AF83B8878091B9
:20508000A3059091A405A091A505B091A60589879A87AB87BC870E94884A0E94BE4C80E0B1
:2050A0000E94583881E00E94583882E00E9458380E94294C4CE050E06BE975E0CE01019615
:2050C0000E94E77A892B11F00E94343DEFE4F4E184918F010F5F1F4F882321F00E947C3AC8
:2050E000F801F6CFEBE9FFE084918F010F5F1F4F882321F00E947C3AF801F6CF2C960FB665
:20510000F894DEBF0FBECDBFDF91CF911F910F91FF90EF90DF90CF900895CF92DF92EF9221
:20512000FF92CF93DF93EC01C090E402D090E502E090E602F090E702A701960168817981BD
:205140008A819B810E94D17387FF04C0C882D982EA82FB82C090E802D090E902E090EA0289
:20516000F090EB02A70196016C817D818E819F810E94D17387FF04C0CC82DD82EE82FF829B
:20518000C0900502D0900602E0900702F0900802A7019601688179818A819B810E942D7ABB
:2051A000181624F4C882D982EA82FB82C0900902D0900A02E0900B02F0900C02A70196010A
:2051C0006C817D818E819F810E942D7A181624F4CC82DD82EE82FF82C090EC02D090ED02FB
:2051E000E090EE02F090EF02A7019601688579858A859B850E94D17387FF04C0C886D986A8
:20520000EA86FB86C0900D02D0900E02E0900F02F0901002A7019601688579858A859B8562
:205220000E942D7A181624F4C886D986EA86FB86DF91CF91FF90EF90DF90CF900895CF9396
:20524000DF93EBE5F5E08491EF012196882321F00E947C3AFE01F7CF8AE0DF91CF910C94C8
:205260007C3A2F923F924F925F926F927F928F929F92AF92BF92CF92DF92EF92FF920F9398
:205280001F93CF93DF93CDB7DEB7CB56D1090FB6F894DEBF0FBECDBFE091180CF091190CF2
:2052A000EF2B09F0D6C7DEAECDAEE9AE79016A015B01FC012091080C3091090C40910A0CE0
:2052C00050910B0C60817181828193810E9436740E94387AA3966CAF7DAF8EAF9FAFA39707
:2052E00020910C0C30910D0C40910E0C50910F0CD5016D917D918D919C910E9436740E9409
:20530000387AA7966CAF7DAF8EAF9FAFA7972091100C3091110C4091120C5091130CF601FD
:2053200060817181828193810E9436740E94387AAB966CAF7DAF8EAF9FAFAB972091140CBD
:205340003091150C4091160C5091170CD7016D917D918D919C910E9436740E94387A2B96E4
:205360006CAF7DAF8EAF9FAF2B978091070C83FF0EC02B964CAC5DAC6EAC7FAC2B9740928A
:20538000030C5092040C6092050C7092060CD8013C9011964C9011974DA612965C901297F5
:2053A00059AA13962C908091F60B9091F50B891B8F708F3019F40E94A61BF5CF6090F60BCB
:2053C000AC966FAEAC978091F60B082F10E018A70FA38091F70B9091F80BA091F90BB091D4
:2053E000FA0BA3968CAC9DACAEACBFACA397881A990AAA0ABB0A8091FB0B9091FC0BA091C1
:20540000FD0BB091FE0BA7964CAC5DAC6EAC7FACA797481A590A6A0A7B0A4BA25CA26DA2C1
:205420007EA28091FF0B9091000CA091010CB091020CAB964CAC5DAC6EAC7FACAB97481A4C
:20544000590A6A0A7B0A49A65AA66BA67CA68091030C9091040CA091050CB091060C2B9627
:205460004CAC5DAC6EAC7FAC2B97481A590A6A0A7B0A09F49DC080911F0681113BC0609158
:2054800020067091210680912206909123060E944B7920912602309127026217730754F5D6
:2054A0002B964CAC5DAC6EAC7FAC2B974092030C5092040C6092050C7092060CEFE4F4E191
:2054C00084918F010F5F1F4F811103C0E4E3F4E104C00E947C3AF801F3CF84918F010F5F70
:2054E0001F4F882321F00E947C3AF801F6CF412C512C320139AD24E0329F800111240E5D73
:205500001D4FC301B2010E94D773D8012D913D914D915C910E9436746B017C0120E030E047
:20552000A9010E942D7A87FF04C0F7FAF094F7F8F0946091140C7091150C8091160C9091BF
:20554000170C0E944B799B01AC01A8ECB0E00E94E7770E94D773A70196010E94D17387FFBE
:205560002AC02B964CAC5DAC6EAC7FAC2B974092030C5092040C6092050C7092060CEFE4BB
:20558000F4E184918F010F5F1F4F811103C0E5E1F4E104C00E947C3AF801F3CF84918F0149
:2055A0000F5F1F4F882321F00E947C3AF801F6CF412C512C3201D501C4018827B7FD83950A
:2055C0009927AA27BB27182F2BA13CA14DA15EA157FD126089A59AA5ABA5BCA5B7FD14606F
:2055E00077FC186009ADA4E00A9FC00111249C012E5D3D4F7901C301B2010E94D773D7017E
:205600002D913D914D915C910E9436746B017C0120E030E0A9010E942D7A87FF04C0C701E9
:20562000B601905802C0C701B60120E030E040E05FE30E9407780E9450796DAB7EAB8FAB11
:2056400098AF8DE54FA058A4849DF001859DF00D1124EB5DF94F1082EA5BFF4F1083B50142
:20566000A401B7FE07C044275527BA01481959096A097B098DE56FA078A4869DF001879DD8
:20568000F00D1124EB5DF94F458B568B678B708F8BA19CA1ADA1BEA1B7FF07C0B095A09599
:2056A000909581959F4FAF4FBF4F2DE50FA118A5209FF001219FF00D1124EB5DF94F818FF4
:2056C000928FA38FB48F09A51AA52BA53CA537FF07C030952095109501951F4F2F4F3F4FEA
:2056E000EDE57E2E4FA058A4749CF001759CF00D1124EB5DF94F058F168F278F30A34DA8B6
:205700005EA86FA878AC41A252A263A274A23A01F62FE72F481759076A077B0718F43C01E5
:20572000FA2FEB2FC301AF2FBE2F80179107A207B30710F4D901C8014DA85EA86FA878AC28
:2057400084159505A605B70510F4D301C2012DE56FA078A4269DF001279DF00D1124EB5DE5
:20576000F94F85A396A3A7A3B0A70697A105B10508F468C5DF01A95ABF4F80911D06909177
:205780001E068D939C9379AC71A6452B462B472B09F05F988DE50FA118A5809FF001819F08
:2057A000F00D1124EB5DF94F818D928DA38DB48D892B8A2B8B2B09F08A988DE54FA058A4F2
:2057C000849DF001859DF00D1124EB5DF94F858D968DA78DB0A1892B8A2B8B2B31F08091C8
:2057E000080181708093060147984DA85EA86FA878AC45284628472809F42DC580911E0C0C
:20580000882319F0815080931E0C59AC511004C0129880E280931E0C6090190670901A0624
:2058200000911B0610911C069301A801632D7DA589A9922D0E94D17387FF04C0362C7DA65E
:2058400009AB212EC501B4010E94D773209105063091060640910706509108060E9436743C
:2058600069AF7AAF8BAF9CAF698B7A8B8B8B9C8B6BA17CA18DA19EA10E94D77320910906EA
:2058800030910A0640910B0650910C060E9436746BA37CA38DA39EA36D8B7E8B8F8B988F36
:2058A00069A57AA58BA59CA50E94D77320910D0630910E0640910F06509110060E9436749C
:2058C0004B015C01698F7A8F8B8F9C8F20911106309112064091130650911406C701B601D4
:2058E0000E9436746B017C016D8F7E8F8F8F98A38DE56FA078A4869DF001879DF00D11240A
:20590000EB5DF94F458856886788708C06E0401651046104710408F4A7C4ADADBEADCD906D
:20592000DD90ED90FC9020E030E0A901C701B6010E94D1738111B7C429AD3AAD4BAD5CAD07
:20594000CA01B9010E9436746B017C012BA13CA14DA15EA1CA01B9010E9436749B01AC01DD
:20596000C701B6010E9407786B017C01A5019401C501B4010E9436749B01AC01C701B601D4
:205980000E9407780E94727A2DE50FA118A5209FF001219FF00D1124EB5DF94F65877687BE
:2059A0008787908B8DE50FA118A5809FF001819FF00D1124EB5DF94F2585368547855089E3
:2059C0006B962CAF3DAF4EAF5FAF6B9760E070E080E89FE30E94E37823966CAF7DAF8EAF3E
:2059E0009FAF2397232D3DA549A9522D0E9436744B015C018091F60B90910406891B8F7027
:205A00008DAFA501940160E074E284E799E40E94E3780E94387A6B017C018DAD8250863095
:205A200008F450C4A50194016B966CAD7DAD8EAD9FAD6B970E9436749B01AC010E9436746D
:205A40002F966CAF7DAF8EAF9FAF2F978DE5AFA1B8A58A9F80018B9F100D11240B5D194FD4
:205A60002F962CAD3DAD4EAD5FAD2F97D80111962D933D934D935C93149795962D913D9190
:205A80004D915C9198972DA73EA74FA758ABCA01B9010E94D57369AB7AAB8BAB9CAB9B0199
:205AA000AC01C501B4010E9436740E94CD780E94507963966CAF7DAF8EAF9FAF6397F80162
:205AC000E95BFF4F60837183828393838E010F5E1F4F25961FAF0EAF2597005111091AAFA2
:205AE00009AF00EF15E06F961FAF0EAF6F978E010F5D1F4F1AA309A309AD1AAD6D961FAF54
:205B00000EAF6D97312C212C10E81BA30FE309A72596AEADBFAD25972D913D914D915D912C
:205B20002596BFAFAEAF2597C501B4010E9436746B017C016D96EEADFFAD6D97619371932D
:205B4000819391936D96FFAFEEAF6D9720E030E0A9010E942D7A87FF04C0F7FAF094F7F80A
:205B6000F0946F96AEADBFAD6F970D911D912D913D916F96BFAFAEAF6F9767960CAF1DAF9D
:205B80002EAF3FAF6797A701960167966CAD7DAD8EAD9FAD67970E94D17387FDCBC309A196
:205BA0001AA125962EAD3FAD25970217130709F0AFCF20E030E040E85FE3632D722D8BA16D
:205BC00099A50E94D17387FF56C07E0131E1E30EF11C09AD1AAD232D322D4BA159A5D80187
:205BE0006D917D918D919C910E943674F80161937193819391938F01EE16FF0661F72DE5D6
:205C00000FA118A5209FC001219F900D11249C012B5D394F79018901095B1F4F63966CAD70
:205C20007DAD8EAD9FAD63970E94D573232D322D4BA159A50E9436740E945079D8016D93A6
:205C40007D938D939C931397232D322D4BA159A5632D722D8BA199A50E9436742F962CAD1F
:205C60003DAD4EAD5FAD2F970E943674F701618372838383948329A93AA94BA95CA92396CC
:205C80006CAD7DAD8EAD9FAD23970E9436746BA37CA38DA39EA3411451046104710409F415
:205CA00065C32DA93EA94FA958AD232B242B252B09F489C32091E8053091E9054091EA05BF
:205CC0005091EB056BA17CA18DA19EA10E9436740E94CD780E9450796B017C018091E005E0
:205CE0009091E105A091E205B091E3050DA51EA52FA538A980179107A207B30708F40EC4D2
:205D0000411451046104710409F066C38DE54FA058A4849DF001859DF00D1124EB5DF94F8A
:205D2000818C928CA38CB48C81149104A104B10409F079C38DE56FA078A4869DF001879D3B
:205D4000F00D1124EB5DF94F858C968CA78CB0A081149104A104B10409F08EC38DE50FA1DB
:205D600018A5809FF001819FF00D1124EB5DF94F81A092A0A3A0B4A081149104A104B10406
:205D800009F0A3C38DE54FA058A4849D8001859D100D11240B5D194FF801ED5AFF4FC08291
:205DA000D182E282F382C701B6010E94D5732BA13CA14DA15EA10E94E3782F966CAF7DAFAF
:205DC0008EAF9FAF2F97D80151966D937D938D939C93549711964D905D906D907C90149743
:205DE00027964CAE5DAE6EAE7FAE2797C301B2010E94727A362E272E8C01E0ECF5E06196F7
:205E0000FFAFEEAF61973E01F1E16F0E711C20EC35E021963FAF2EAF219749AC5AAC6BA3C0
:205E200079A78DA719AB1DAAD201CD90DD90ED90FD902D0120E030E0A901C701B6010E94D3
:205E40002D7A87FF04C0F7FAF094F7F8F0942196EEADFFAD219781909190A190B190219658
:205E6000FFAFEEAF2197A7019601C501B4010E94D17387FD70C464147504B1F64DAC4420D2
:205E800009F4E2C4C090BC05D090BD05E090BE05F090BF052DEB37E346E855E3C701B6019E
:205EA0000E94D17387FDD0C4C701B6010E94727A6B017C019B01AC01632D722DC8010E940B
:205EC000D17387FD03C03C2C2D2C87019601A701632D722DC8010E94E37867966CAF7DAF76
:205EE0008EAF9FAF67972CEA35E021963FAF2EAF2197412C512C30E8632E3FE3732E4DAA67
:205F00005EAA6FAA78AE1DAE2196AEADBFAD21972D913D914D915D912196BFAFAEAF2197A7
:205F200067966CAD7DAD8EAD9FAD67970E9436744B015C01E9ADFAADC190D190E190F190C6
:205F4000FAAFE9AF4DAC442091F02DA93EA94FA958AD0E9436744B015C012DA93EA94FA9BE
:205F600058ADC701B6010E9436746B017C01A7019601C501B4010E942D7A20E030E0A901AB
:205F800018160CF02EC4C701B6010E942D7A18160CF422C420E030E0A901C501B4010E9432
:205FA000D17387FD19C42601370177FA709477F87094A3019201C501B4010E942D7A1816CC
:205FC00014F4240135016196AEADBFAD6197CD90DD90ED90FD906196BFAFAEAF6197A30176
:205FE0009201C701B6010E94D17387FF15C0A3019201C701B6010E94E3789B01AC016DA93C
:206000007EA98FA998AD0E9436746DAB7EAB8FAB98AFBDADBF5FBDAFECEBF5E021964EAC7D
:206020005FAC2197E415F50509F06ECF5DAC552061F02DA93EA94FA958AD632D722DC801F3
:206040000E943674362E272E8C0124EA30E74DE75FE3632D722DC8010E9436746B017C01E6
:2060600020911A0C30911B0C40911C0C50911D0C0E94D17387FDDEC38BA199A5ADA5B9A935
:2060800080931A0C90931B0CA0931C0CB0931D0C2DE56FA078A4269DC001279D900D11245F
:2060A0009C012B5D394F7901232D322DA801632D722DC8010E943674D70119966D937D9386
:2060C0008D939C931C978BE097EDA3E2BBE3F70185839683A783B08710812F966CAD7DAD99
:2060E0008EAD9FAD2F9790589B01AC010E9407786B962CAD3DAD4EAD5FAD6B970E943674E8
:206100009B01AC016BE077ED83E29BE30E9406789B01AC0127966CAD7DAD8EAD9FAD2797F6
:206120000E94D17318160CF494C383E0182B8DE54FA058A4849DF001859DF00D1124EB5D43
:20614000F94F108380E1FE013196ACEAB5E001900D928A95E1F727964CAC5DAC6EAC7FACE8
:2061600027974092BC055092BD056092BE057092BF05A3964CAC5DAC6EAC7FACA397409224
:20618000F70B5092F80B6092F90B7092FA0BA7964CAC5DAC6EAC7FACA7974092FB0B5092A0
:2061A000FC0B6092FD0B7092FE0BAB964CAC5DAC6EAC7FACAB974092FF0B5092000C60924E
:2061C000010C7092020C2B964CAC5DAC6EAC7FAC2B974092030C5092040C6092050C709201
:2061E000060C9091F60B8091F50B981303C084E680932406AC968FADAC978F5F8F70809384
:20620000F60B8091F60B9091AB0581508F70891322C3D090F50B8090F60B2DE5D810A6C375
:20622000212C312C412C512C1FA21BA2712C612C00E010E0E12CF12C8D10A5C301151105F7
:2062400009F016C480916F00826080936F0081E044C580E042C560901506709016060091FE
:20626000170610911806E0CA818D928DA38DB48D0697A105B10508F050CB858D968DA78D85
:20628000B0A10697A105B10508F047CB20E030E0A901C701B6010E942D7A87FF04C0F7FAED
:2062A000F094F7F8F0948DE50FA118A5809FF001819FF00D1124EB5DF94FC586D686E78602
:2062C000F08A70CB8091000690910106A0910206B0910306C816D906EA06FB0608F0A2CB34
:2062E0008C199D09AE09BF09BC01CD01660F771F881F991F4DAD042F10E020E030E0A90108
:2063000098010E94A977CA01B9010E94D5730E94387A6C0D7D1D8E1D9F1D0E94D5739B015F
:20632000AC0160E074E284E799E40E94E3784B015C0178CBA701960167966CAD7DAD8EAD8F
:206340009FAD67970E94E3787B018C019B01AC01632D722D8BA199A50E942D7A18160CF098
:206360001ECC3E2C2F2C0BA319A719CC8DE50FA118A5809FF001819FF00D1124EB5DF94F4A
:20638000818D928DA38DB48D892B8A2B8B2B09F088CC858D968DA78DB0A1892B8A2B8B2B1A
:2063A00009F07FCC2091EC053091ED054091EE055091EF056BA17CA18DA19EA10E943674C9
:2063C0000E94CD78C3C12091E4053091E5054091E6055091E70576CC6091D0057091D105A5
:2063E0008091D2059091D3056C157D058E059F0508F08CCCA90198010E949A774B015C0193
:20640000A3019201C701B6010E949A7786169706A806B90608F07ACCC501B4010E94A977F2
:2064200069017A0173CC6091D4057091D5058091D6059091D7056C157D058E059F0508F078
:2064400079CC2DA53EA54FA558A90E949A772B013C01A5019401C701B6010E949A77461668
:2064600057066806790608F065CCC301B2010E94A97769017A015ECC6091D8057091D905B4
:206480008091DA059091DB056C157D058E059F0508F064CC2DA53EA54FA558A90E949A774C
:2064A0002B013C01A5019401C701B6010E949A77461657066806790608F050CCC301B201D5
:2064C0000E94A97769017A0149CC6091DC057091DD058091DE059091DF056C157D058E05BC
:2064E0009F0508F04FCC2DA53EA54FA558A90E949A772B013C01A5019401C701B6010E94C3
:206500009A77461657066806790608F03BCCC301B2010E94A97769017A0134CC41145104FD
:2065200061047104B9F16091D0057091D1058091D2059091D3056C157D058E059F0550F5DA
:206540000E94D57329A93AA94BA95CA90E9436744B015C01C301B2010E94D5732B013C01E4
:20656000C701B6010E94D573A30192010E9436749B01AC01C501B4010E94D17387FF0AC035
:20658000A3019201C501B4010E94E3780E9450796B017C018DE54FA058A4849DF001859D67
:2065A000F00D1124EB5DF94F418C528C638C748C4114510461047104B9F16091D405709186
:2065C000D5058091D6059091D7056C157D058E059F0550F50E94D57329A93AA94BA95CA9E1
:2065E0000E9436744B015C01C301B2010E94D5732B013C01C701B6010E94D573A30192013C
:206600000E9436749B01AC01C501B4010E94D17387FF0AC0A3019201C501B4010E94E37885
:206620000E9450796B017C018DE56FA078A4869DF001879DF00D1124EB5DF94F458C568CBC
:20664000678C70A04114510461047104B9F16091D8057091D9058091DA059091DB056C15EA
:206660007D058E059F0550F50E94D57329A93AA94BA95CA90E9436744B015C01C301B20118
:206680000E94D5732B013C01C701B6010E94D573A30192010E9436749B01AC01C501B401F7
:2066A0000E94D17387FF0AC0A3019201C501B4010E94E3780E9450796B017C018DE50FA17F
:2066C00018A5809FF001819FF00D1124EB5DF94F81A092A0A3A0B4A081149104A104B1049D
:2066E00009F450CB6091DC057091DD058091DE059091DF056C157D058E059F0508F042CB95
:206700000E94D57329A93AA94BA95CA90E9436742B013C01C501B4010E94D5734B015C011E
:20672000C701B6010E94D573A50194010E9436749B01AC01C301B2010E94D17387FF22CB50
:20674000A5019401C301B2010E94E3780E9450796B017C0117CBFDA9FF2331F1A50194012F
:20676000632D722DC8010E9436744B015C012BA139A54DA559A9C701B6010E9436749B0127
:20678000AC01C501B4010E94D17387FF22C0A7019601C501B4010E94E3786BA379A78DA76A
:2067A00099AB21E02DAB67CBA7019601C501B4010E94E3789B01AC016BA179A58DA599A9EC
:2067C0000E9436746BA379A78DA799AB31E03DAB52CB41E04DAB4FCBA7019601C501B401C4
:2067E00013C0C701B6010E94D17387FD09C020E030E0A901C501B4010E942D7A18164CF428
:20680000A5019401C701B6010E9406782B013C01DACB2401350177FA709477F87094A301A9
:206820009201C701B6010E94D17387FDCCCB26013701C9CB2BA139A54DA559A9C701B60135
:206840000E94D17387FF18CC3BA029A40DA519A913CC81E06BCCF090F60B8FEF8F0D8F70BB
:206860008FA3B090AB058091F60BB81609F453C0C12CD12C5FA05B1409F44DC0652C712C76
:206880002DE5269D8001279D100D11240B5D194FD8018C9183FD2AC00DAB19AF19964C9051
:2068A00019974BA21A965C901A9759A61B964C901B974DA61C965C901C9759AA15962D9001
:2068C0003D904D905C901897A20191016BA179A58DA599A90E94D173811108C1C114D104B5
:2068E00039F0D6018C9180FD01C102C0CDAAD9AE8FA181508F708FA38091AB058B1103C02A
:20690000CDA8D9ACB7CF4FA04B1429F081E08B0D8F70B82EF1CF5090AB055FA2C12CD12C77
:206920008091F60B6FA0861509F473CC862C912C9DE5792E789C8001799C100D11240B5D63
